{
  "_format": "hh-sol-artifact-1",
  "contractName": "MintaroEscrow",
  "sourceName": "contracts/MintaroEscrow.sol",
  "abi": [
    {
      "anonymous": false,
      "inputs": [
        {
          "indexed": true,
          "internalType": "uint256",
          "name": "jobId",
          "type": "uint256"
        },
        {
          "indexed": true,
          "internalType": "address",
          "name": "client",
          "type": "address"
        },
        {
          "indexed": true,
          "internalType": "address",
          "name": "freelancer",
          "type": "address"
        }
      ],
      "name": "JobCreated",
      "type": "event"
    },
    {
      "anonymous": false,
      "inputs": [
        {
          "indexed": true,
          "internalType": "uint256",
          "name": "jobId",
          "type": "uint256"
        },
        {
          "indexed": true,
          "internalType": "uint256",
          "name": "milestoneId",
          "type": "uint256"
        }
      ],
      "name": "MilestoneApproved",
      "type": "event"
    },
    {
      "anonymous": false,
      "inputs": [
        {
          "indexed": true,
          "internalType": "uint256",
          "name": "jobId",
          "type": "uint256"
        },
        {
          "indexed": true,
          "internalType": "uint256",
          "name": "milestoneId",
          "type": "uint256"
        },
        {
          "indexed": false,
          "internalType": "uint256",
          "name": "amount",
          "type": "uint256"
        }
      ],
      "name": "MilestoneCreated",
      "type": "event"
    },
    {
      "anonymous": false,
      "inputs": [
        {
          "indexed": true,
          "internalType": "uint256",
          "name": "jobId",
          "type": "uint256"
        },
        {
          "indexed": true,
          "internalType": "uint256",
          "name": "milestoneId",
          "type": "uint256"
        },
        {
          "indexed": false,
          "internalType": "uint256",
          "name": "amount",
          "type": "uint256"
        }
      ],
      "name": "PaymentReleased",
      "type": "event"
    },
    {
      "anonymous": false,
      "inputs": [
        {
          "indexed": true,
          "internalType": "address",
          "name": "freelancer",
          "type": "address"
        },
        {
          "indexed": false,
          "internalType": "uint256",
          "name": "amount",
          "type": "uint256"
        }
      ],
      "name": "Withdrawn",
      "type": "event"
    },
    {
      "inputs": [
        {
          "internalType": "uint256",
          "name": "jobId",
          "type": "uint256"
        },
        {
          "internalType": "uint256",
          "name": "milestoneId",
          "type": "uint256"
        }
      ],
      "name": "approveMilestone",
      "outputs": [],
      "stateMutability": "nonpayable",
      "type": "function"
    },
    {
      "inputs": [
        {
          "internalType": "address",
          "name": "",
          "type": "address"
        }
      ],
      "name": "available",
      "outputs": [
        {
          "internalType": "uint256",
          "name": "",
          "type": "uint256"
        }
      ],
      "stateMutability": "view",
      "type": "function"
    },
    {
      "inputs": [
        {
          "internalType": "address",
          "name": "freelancer",
          "type": "address"
        }
      ],
      "name": "createJob",
      "outputs": [
        {
          "internalType": "uint256",
          "name": "jobId",
          "type": "uint256"
        }
      ],
      "stateMutability": "nonpayable",
      "type": "function"
    },
    {
      "inputs": [
        {
          "internalType": "uint256",
          "name": "jobId",
          "type": "uint256"
        },
        {
          "internalType": "uint256",
          "name": "amount",
          "type": "uint256"
        }
      ],
      "name": "createMilestone",
      "outputs": [
        {
          "internalType": "uint256",
          "name": "milestoneId",
          "type": "uint256"
        }
      ],
      "stateMutability": "payable",
      "type": "function"
    },
    {
      "inputs": [
        {
          "internalType": "uint256",
          "name": "jobId",
          "type": "uint256"
        }
      ],
      "name": "getJob",
      "outputs": [
        {
          "internalType": "address",
          "name": "client",
          "type": "address"
        },
        {
          "internalType": "address",
          "name": "freelancer",
          "type": "address"
        },
        {
          "internalType": "uint256",
          "name": "locked",
          "type": "uint256"
        },
        {
          "internalType": "uint256",
          "name": "milestonesCount",
          "type": "uint256"
        }
      ],
      "stateMutability": "view",
      "type": "function"
    },
    {
      "inputs": [
        {
          "internalType": "uint256",
          "name": "jobId",
          "type": "uint256"
        },
        {
          "internalType": "uint256",
          "name": "milestoneId",
          "type": "uint256"
        }
      ],
      "name": "getMilestone",
      "outputs": [
        {
          "internalType": "uint256",
          "name": "amount",
          "type": "uint256"
        },
        {
          "internalType": "bool",
          "name": "approved",
          "type": "bool"
        },
        {
          "internalType": "bool",
          "name": "released",
          "type": "bool"
        }
      ],
      "stateMutability": "view",
      "type": "function"
    },
    {
      "inputs": [],
      "name": "jobCount",
      "outputs": [
        {
          "internalType": "uint256",
          "name": "",
          "type": "uint256"
        }
      ],
      "stateMutability": "view",
      "type": "function"
    },
    {
      "inputs": [
        {
          "internalType": "uint256",
          "name": "jobId",
          "type": "uint256"
        },
        {
          "internalType": "uint256",
          "name": "milestoneId",
          "type": "uint256"
        }
      ],
      "name": "releasePayment",
      "outputs": [],
      "stateMutability": "nonpayable",
      "type": "function"
    },
    {
      "inputs": [],
      "name": "withdraw",
      "outputs": [],
      "stateMutability": "nonpayable",
      "type": "function"
    },
    {
      "stateMutability": "payable",
      "type": "receive"
    }
  ],
  "bytecode": "0x608060405234801561001057600080fd5b5061098a806100206000396000f3fe60806040526004361061008a5760003560e01c80638ed9895c116100595780638ed9895c1461012357806397e99a801461018e578063bf22c457146101ae578063d004e98514610229578063d3e4bd951461024957600080fd5b806310098ad51461009657806320913da5146100d65780633ccfd60b146100f85780634c5d8a0f1461010d57600080fd5b3661009157005b600080fd5b3480156100a257600080fd5b506100c36100b1366004610869565b60026020526000908152604090205481565b6040519081526020015b60405180910390f35b3480156100e257600080fd5b506100f66100f1366004610899565b61025c565b005b34801561010457600080fd5b506100f6610384565b34801561011957600080fd5b506100c360005481565b34801561012f57600080fd5b5061017161013e366004610899565b60009182526001602081815260408085209385526004909301905291208054910154909160ff8083169261010090041690565b6040805193845291151560208401521515908201526060016100cd565b34801561019a57600080fd5b506100f66101a9366004610899565b6104a9565b3480156101ba57600080fd5b506101fe6101c93660046108bb565b600090815260016020819052604090912080549181015460028201546003909201546001600160a01b03938416949390911692565b604080516001600160a01b0395861681529490931660208501529183015260608201526080016100cd565b34801561023557600080fd5b506100c3610244366004610869565b61061e565b6100c3610257366004610899565b6106e8565b600082815260016020526040902080546001600160a01b0316331461029c5760405162461bcd60e51b8152600401610293906108d4565b60405180910390fd5b60008281526004820160205260409020600181015460ff16156102f45760405162461bcd60e51b815260206004820152601060248201526f185b1c9958591e48185c1c1c9bdd995960821b6044820152606401610293565b6001810154610100900460ff16156103415760405162461bcd60e51b815260206004820152601060248201526f185b1c9958591e481c995b19585cd95960821b6044820152606401610293565b6001818101805460ff19169091179055604051839085907f939da3b627c123c81fe5aacebf925163337a0d4f8a03724640618078cad2489490600090a350505050565b33600090815260026020526040902054806103d75760405162461bcd60e51b81526020600482015260136024820152726e6f7468696e6720746f20776974686472617760681b6044820152606401610293565b336000818152600260205260408082208290555190919083908381818185875af1925050503d8060008114610428576040519150601f19603f3d011682016040523d82523d6000602084013e61042d565b606091505b50509050806104705760405162461bcd60e51b815260206004820152600f60248201526e1d1c985b9cd9995c8819985a5b1959608a1b6044820152606401610293565b60405182815233907f7084f5476618d8e60b11ef0d7d3f06914655adb8793e28ff7f018d4c76d505d59060200160405180910390a25050565b600082815260016020526040902080546001600160a01b031633146104e05760405162461bcd60e51b8152600401610293906108d4565b60008281526004820160205260409020600181015460ff166105335760405162461bcd60e51b815260206004820152600c60248201526b1b9bdd08185c1c1c9bdd995960a21b6044820152606401610293565b6001810154610100900460ff16156105805760405162461bcd60e51b815260206004820152601060248201526f185b1c9958591e481c995b19585cd95960821b6044820152606401610293565b60018101805461ff00191661010017905580546002830180546000906105a790849061090f565b9091555050805460018301546001600160a01b0316600090815260026020526040812080549091906105da908490610928565b90915550508054604051908152839085907f3c70b1e8034b5738ec77fbfdaa4d28906a0b3160018d67a2dc7b534e53e33fe09060200160405180910390a350505050565b60006001600160a01b0382166106675760405162461bcd60e51b815260206004820152600e60248201526d3130b210333932b2b630b731b2b960911b6044820152606401610293565b60008081546106759061093b565b9182905550600081815260016020819052604080832080546001600160a01b031990811633908117835593820180546001600160a01b038a16921682179055915194955093909285917fb8a95c94eaef926728b4c32140db94a2588d56eb892b916b7cce579d783e19a39190a450919050565b600082815260016020526040812080546001600160a01b0316331461071f5760405162461bcd60e51b8152600401610293906108d4565b6000831161075c5760405162461bcd60e51b815260206004820152600a60248201526918985908185b5bdd5b9d60b21b6044820152606401610293565b82341461079b5760405162461bcd60e51b815260206004820152600d60248201526c199d5b99080f48185b5bdd5b9d609a1b6044820152606401610293565b6003810180549060006107ad8361093b565b9091555060408051606081018252858152600060208083018281528385018381528684526004880190925293822092518355925160019092018054935161ffff1990941692151561ff00191692909217610100931515939093029290921790556002830180549294508592909190610826908490610928565b9091555050604051838152829085907fb59c2d823e6ca395c24829d80f43a97d9c6fd711596372c5a4663af872f4b9d29060200160405180910390a35092915050565b60006020828403121561087b57600080fd5b81356001600160a01b038116811461089257600080fd5b9392505050565b600080604083850312156108ac57600080fd5b50508035926020909101359150565b6000602082840312156108cd57600080fd5b5035919050565b6020808252600b908201526a1bdb9b1e4818db1a595b9d60aa1b604082015260600190565b634e487b7160e01b600052601160045260246000fd5b81810381811115610922576109226108f9565b92915050565b80820180821115610922576109226108f9565b60006001820161094d5761094d6108f9565b506001019056fea2646970667358221220a3461a267bdce452b4069b2f0eddf1aaae97a90096ddb9d39bd1e5b8259f234b64736f6c63430008180033",
  "linkReferences": {},
  "deployedLinkReferences": {}
}